:020000040800F2
:1000000000500020394F0008854F0008854F000838
:10001000854F0008854F0008854F0008000000004C
:10002000000000000000000000000000854F0008F4
:10003000854F00080000000021590008710F0008DA
:10004000854F0008854F0008854F0008854F000840
:10005000854F0008854F0008854F0008854F000830
:10006000854F0008854F0008854F0008854F000820
:10007000854F0008854F0008854F0008854F000810
:10008000854F0008854F0008854F0008854F000800
:10009000854F0008854F0008854F0008854F0008F0
:1000A000854F0008854F0008854F0008854F0008E0
:1000B000854F0008854F0008854F0008854F0008D0
:1000C000854F0008854F0008854F0008854F0008C0
:1000D000854F000825400008854F0008854F00081F
:1000E000854F0008854F0008854F0008000000007C
:1000F0000000000000000000000000000000000000
:1001000000000000000000005FF808F110B5054C89
:10011000237833B9044B13B10448AFF300800123B3
:10012000237010BDA800002000000000C483000858
:1001300008B5064B1BB106480649AFF300800648D8
:10014000036813B1054B03B1984708BD00000000D8
:10015000C4830008AC000020A400002000000000C0
:1001600080B584B000AF0346FB71FB7902201946CD
:10017000002205F055FCF860FB68002B01D1FF233D
:1001800004E0FB680022DA80FB681B791846103710
:10019000BD4680BD80B584B000AF02460B46FA7103
:1001A000BB71FB79132B01D9012313E0FB791A01F1
:1001B0000A4B1344FB60FB685B79C3F30303DBB2B8
:1001C000022B01D0012305E0BB79F868194605F040
:1001D00069FC034618461037BD4680BD4C0400201C
:1001E00080B584B000AF03463960FB71FB79132BF7
:1001F00004D93B6801221A70002331E0FB791A010F
:10020000194B1344FB60FB685B79C3F30303DBB258
:10021000022B04D03B6801221A70002320E0134B0C
:100220001B78DBB20133DAB2104B1A70FB68DB8843
:10023000012B0FD13B6800221A70FB681B68BB6062
:10024000FB6800221A60FB680022DA8000F0C8FD1B
:10025000BB6805E000F0C4FD3B680A221A70002369
:1002600018461037BD4680BD4C040020D900002040
:1002700080B588B000AF0346B9607A60FB734F4B1E
:100280001B78DBB2002B04D07B6803221A7000239A
:1002900090E0FB7B132B04D97B6801221A700023AA
:1002A00088E0FB7B1A01464B1344FB61FB695B79D9
:1002B000C3F30303DBB2022B04D07B6801221A7064
:1002C000002377E03F4B1B78DBB2002B04D07B6828
:1002D00015221A7000236DE03A4B1B78DBB2013314
:1002E000DAB2384B1A70FB69DB88012B0FD17B68BF
:1002F00000221A70FB691B68BB61FB6900221A604F
:10030000FB690022DA8000F06BFDBB6952E000F06F
:1003100067FD2D4B1B687B61BB68002B1AD1F86908
:10032000796905F005FC7B6800221A70254B1B7863
:10033000DBB20133DAB2234B1A707B691B69BB61F4
:10034000FB690022DA807B6900221A6100F048FD17
:10035000BB692FE01B4B1B78DBB20133DAB2194BC0
:100360001A70F869796905F0E3FB7869B96801F0FA
:100370004BFF00F035FD7B691B69002B04D17B68C6
:1003800005221A70002315E07B6800221A700D4BBD
:100390001B78DBB20133DAB20A4B1A707B691B6936
:1003A000BB61FB690022DA807B6900221A6100F0E0
:1003B00017FDBB6918462037BD4680BDD800002018
:1003C0004C040020D90000209002002080B584B0A9
:1003D00000AF03463960FB71FB79132B01D9012370
:1003E00026E0FB791A01144B1344FB60FB685B7930
:1003F000C3F30303DBB2022B01D0012318E0FB6837
:10040000DB88002B13D10D4B1B78DBB20133DAB242
:100410000A4B1A70FB683A681A60FB680122DA809E
:10042000F86805F005FC00F0DBFC002300E0072382
:1004300018461037BD4680BD4C040020D90000206E
:1004400080B582B000AF03463960FB710D4B1B785D
:10045000DBB2002B0CD0FB79022019463A6800F081
:10046000D3FD0346002B01D1122307E0002305E052
:10047000FB7918463968FFF7A9FF03461846083785
:10048000BD4680BDD900002080B584B000AF0246D3
:100490000B46FA71BB711F4B1B78DBB20133DAB22A
:1004A0001C4B1A700023FB732AE01B4B9A68FB7BE2
:1004B000012101FA03F31340002B1ED1164B9A6859
:1004C000FB7B012101FA03F31A43134B9A60124B91
:1004D0001A68B979FB7B01FA03F31A430E4B1A60D1
:1004E0000D4B5A68F979FB7B01FA03F31A430A4B67
:1004F0005A6000F075FCFB7B08E0FB7B0133FB736B
:10050000FB7B1F2BD1D900F06BFCFF231846103763
:10051000BD4680BDD9000020C400002080B584B055
:1005200000AF02460B46FA71BB713F4BBB603F4BBD
:100530001B78DBB2002B01D0032370E0BB689A6804
:10054000FB79012101FA03F31340002B01D10123B0
:1005500065E0374B1B78DBB20133DAB2344B1A70EB
:10056000BB68DB68FB6036E0FB689A68FB790121B9
:1005700001FA03F31340002B2AD0BB79002B03D1DF
:1005800000F02EFC04234AE0BB79012B20D1FB684C
:100590001B7C002B17D1FB689A68FB79012101FABB
:1005A00003F39A4204D1F86800F080FBF86012E08F
:1005B000FB689A68FB79012101FA03F3DB431A40D7
:1005C000FB689A6004E0F86800F070FBF86002E0F5
:1005D000FB681B68FB60FB68002BC5D1BB689A6891
:1005E000FB79012101FA03F3DB431A40BB689A60EF
:1005F000BB681A68FB79012101FA03F3DB431A4057
:10060000BB681A60BB685A68FB79012101FA03F3E1
:10061000DB431A40BB685A6000F0E2FB0023184637
:100620001037BD4680BD00BFC4000020D8000020A8
:10063000D900002080B584B000AF0346FB711C4B8D
:10064000FB60FB791F2B01D901232CE0FB689A6822
:10065000FB79012101FA03F31340002B01D101239F
:1006600021E0FB681A68FB79012101FA03F31340CA
:10067000002B17D00F4B1B78DBB20133DAB20D4BD6
:100680001A70FB681A680A4B5968FB79012000FA56
:1006900003F30B40DB431A40FB681A6000F0A0FB39
:1006A000002300E00C2318461037BD4680BD00BF74
:1006B000C4000020D900002080B586B000AFF860EB
:1006C0000B467A60FB72294B7B617B699A68FB68F9
:1006D0001A40FB689A4204D07B6802221A700023F9
:1006E00040E07B691A68FB6813403B61204B1B7834
:1006F000DBB20133DAB21E4B1A703B69002B13D008
:10070000FB7A012B10D17B691A687B6959683B69B8
:100710000B40DB431A407B691A6000F061FB7B6889
:1007200000221A703B691DE03A69FB689A4213D1B6
:10073000FB7A002B10D17B691A687B6959683B6989
:100740000B40DB431A407B691A6000F049FB7B6871
:1007500000221A703B6905E000F042FB7B680C2226
:100760001A70002318461837BD4680BDC40000200B
:10077000D900002080B58AB000AF03463960FB7114
:10078000544B1B78DBB2002B01D003239EE0524B6D
:100790001B78DBB2002B01D0152397E0FB791F2BD0
:1007A00001D9012392E04D4B9A68FB79012101FAAE
:1007B00003F31340002B01D1012387E0464B1B7844
:1007C000DBB20133DAB2444B1A70444B7B627B6A72
:1007D0001A68FB79012101FA03F31340002B0FD0B3
:1007E0007B6A1A687B6A5968FB79012000FA03F377
:1007F0000B40DB431A407B6A1A6000F0F1FA64E0B8
:10080000374B1B683B623B68002B2DD1FB790122E3
:1008100002FA03F307F10C0210461946022200F017
:1008200009FA3B6A02225A712E4B01221A7000F01B
:10083000D7FA3B6A0022DA61274B1B78DBB201331F
:10084000DAB2254B1A707B6A1A68FB79012101FA2A
:1008500003F319467B6A5B680B40DB431A407B6AF3
:100860001A6000F0BDFA30E0FB79012202FA03F3CE
:1008700007F10C0210461946022200F0DBF9386A33
:10088000396801F0C1FC00F0ABFA3B6ADB69002B70
:1008900001D105231AE03B6A0022DA610E4B1B7876
:1008A000DBB20133DAB20C4B1A707B6A1A68FB793F
:1008B000012101FA03F319467B6A5B680B40DB43B5
:1008C0001A407B6A1A6000F08BFA0023184628371A
:1008D000BD4680BDD8000020D9000020C400002003
:1008E00090020020DA00002080B58CB000AFF860E4
:1008F0007A603B600B46FB72664B1B78DBB2002BC9
:1009000004D03B6803221A700023BEE0624B1B78C0
:10091000DBB2002B04D03B6815221A700023B4E030
:100920005E4B9A68FB681A40FB689A4204D03B68A9
:1009300002221A700023A8E0574B1B78DBB2013368
:10094000DAB2554B1A70554BFB62FB6A1A68FB68AA
:100950001340BB62BB6A002B13D0FB7A012B10D172
:10096000FB6A1A68FB6A5968BB6A0B40DB431A4092
:10097000FB6A1A6000F034FA3B6800221A70BB6A06
:1009800083E0BA6AFB689A4213D1FB7A002B10D13C
:10099000FB6A1A68FB6A5968BB6A0B40DB431A4062
:1009A000FB6A1A6000F01CFA3B6800221A70BB6AEE
:1009B0006BE03B4B1B687B627B68002B2FD107F100
:1009C0001002FB7A1046F9681A4600F033F97B6A88
:1009D00002225A71334B01221A7000F001FA7B6A2D
:1009E0000022DA612C4B1B78DBB20133DAB22A4BDE
:1009F0001A70FB6A1A68FB681340BB62FB6A1A68CC
:100A0000FB6A5968BB6A0B40DB431A40FB6A1A60F9
:100A100000F0E6F93B6800221A70BB6A35E007F186
:100A20001002FB7A1046F9681A4600F003F9786A5A
:100A3000796801F0E9FB00F0D3F97B6ADB69002BF0
:100A400004D13B6805221A7000231EE07B6A002255
:100A5000DA61114B1B78DBB20133DAB20E4B1A703C
:100A60000E4B1A68FB681340BB62FB6A1A68FB6A8C
:100A70005968BB6A0B40DB431A40FB6A1A6000F0FE
:100A8000AFF93B6800221A70BB6A18463037BD4682
:100A900080BD00BFD8000020D9000020C400002085
:100AA00090020020DA00002080B485B000AF034639
:100AB000FB71114BFB60FB791F2B01D9012315E062
:100AC000FB689A68FB79012101FA03F31340002BBC
:100AD00001D101230AE0FB681A68FB79012101FAC0
:100AE00003F3DB431A40FB681A60002318461437EF
:100AF000BD465DF8047B7047C400002080B584B01B
:100B000000AF0346FB71384BBB60FB791F2B01D94B
:100B1000012364E0BB689A68FB79012101FA03F3C1
:100B20001340002B01D1012359E0BB681A68FB79FF
:100B3000012101FA03F31340002B01D000234EE002
:100B4000BB681A68FB79012101FA03F31A43BB68F9
:100B50001A60264B1B78DBB20133DAB2234B1A70D2
:100B6000BB68DB68FB6034E0FB681B7C002B17D1A3
:100B7000FB689A68BB681B681A40FB689B689A42CE
:100B800024D1F86800F092F8F860BB685A68FB79E5
:100B9000012101FA03F31340002B00D01CE018E000
:100BA000FB689A68BB681B681340002B0ED0F8687E
:100BB00000F07CF8F860BB685A68FB79012101FA03
:100BC00003F31340002B00D006E002E0FB681B6833
:100BD000FB60FB68002BC7D100F002F90023184628
:100BE0001037BD4680BD00BFC4000020D9000020E2
:100BF00080B582B000AF0346FB710D4B1B78DBB2B2
:100C0000002B0CD0FB7903201946002200F0FCF9E0
:100C10000346002B01D1122306E0002304E0FB79F8
:100C20001846FFF76BFF034618460837BD4680BDE0
:100C3000D900002080B487B000AFF860B9601346D7
:100C4000FB71184B7B61184B1B68FA68DA61164B15
:100C50001A68FB68DA60FB68BA689A60FB68FA7920
:100C60001A747B691B69002B09D1FB6800221A608A
:100C7000FB6800225A607B69FA68DA600AE07B69E7
:100C80001B69FA681A607B691A69FB685A60FB681D
:100C900000221A607B69FA681A611C37BD465DF84C
:100CA000047B7047C40000209002002080B584B00F
:100CB00000AF7860786800F023F87B68DB68FB6041
:100CC000FB681B6AB3F1FF3F02D0F86801F014FB28
:100CD000FB684FF0FF32DA61084B1B68FA689A42F2
:100CE00003D1FB6801225A7102E0F86800F088FA2B
:100CF0007B681B6818461037BD4680BD90020020F7
:100D000080B483B000AF78607B681B68002B0AD189
:100D10007B685B68002B06D1194B0022DA60184B08
:100D200000221A6123E07B681B68002B08D17B68D6
:100D30005A68134B1A617B685B6800221A6016E0E0
:100D40007B685B68002B08D17B681A680C4BDA6003
:100D50007B681B6800225A6009E07B681B687A6820
:100D600052685A607B685B687A6812681A607B68B0
:100D7000DB680022DA610C37BD465DF8047B704702
:100D8000C400002080B500AF014804F07FFD80BDA5
:100D9000D800002080B500AF0E4804F08FFD0D4B49
:100DA0001B78DBB2002B14D10B4B1B78DBB2012B71
:100DB0000FD10A4B1B78DBB20133DAB2074B1A7042
:100DC00000F0C0FB054B1B78DBB2013BDAB2034BF2
:100DD0001A7080BDD8000020DA000020D900002061
:100DE00080B500AF0E4B1B78DBB2012B10D10D4B41
:100DF0001B78012B01D100F04DF90B4B1B78DBB2B6
:100E0000012B01D100F09EFB054B00221A7006E079
:100E1000034B1B78DBB2013BDAB2014B1A7080BD89
:100E2000D900002014010020DA00002080B400AFB7
:100E3000054B1B78DBB20133DAB2034B1A70BD46A7
:100E40005DF8047B704700BFD900002080B500AF7B
:100E5000FFF7C6FF80BD00BF80B500AF154B164A37
:100E60001A60164B07221A60154B154A126842F099
:100E70007F421A60134A134B1B686FEA03436FEA01
:100E80001343136000F088F904F06CFD00F05CFF80
:100E90000D4B1B78DBB20133DAB20B4B1A700B48E7
:100EA00000214FF4CA520A4B00F012FC084804F02B
:100EB0002BFD80BD14E000E03F19010010E000E0D0
:100EC0001CED00E020ED00E0D9000020915D00085D
:100ED0008002002080B500AF094B0A4A1A60084B17
:100EE0001A68094B1A60064B1B6801225A71044BA1
:100EF0001B68184600F004FAFFF772FF80BD00BFC0
:100F000090020020180100208C02002080B400AF65
:100F10004FF48B731846BD465DF8047B704700BFE5
:100F200080B487B000AFF860B9607A607B687B619D
:100F30007B691A1F7A614FF080721A607B691A1FF1
:100F40007A61FA681A607B696FF001021A607B6946
:100F5000143B7B61BA687B691A607B69203B7B61CB
:100F60007B6918461C37BD465DF8047B704700BF9F
:100F700080B500AF1F4B1B78DBB20133DAB21D4BDB
:100F80001A701D4BD3E90023013243F100031A49C3
:100F9000C1E90023194B1B68002B10D0174B1B68AD
:100FA0001B6A012B05D9154B1B681A6A013A1A6294
:100FB00005E0124B1B6800221A6201F007FB104B80
:100FC0001B68002B10D00E4B1B685B68012B05D9EA
:100FD0000B4B1B685A68013A5A6005E0084B1B68C6
:100FE00000225A6004F014FB064B01221A70FFF72E
:100FF000F7FE80BDD9000020E0000020740300202F
:1010000044040020DA00002080B584B000AF0B4615
:101010003A600246FA71BB7104F06EFC1A4B1B7801
:10102000042B03D904F060FC002328E0164804F0E8
:101030002DFC0346FB73144B5B78BB73134B0122EF
:101040001A70FA7BBB7BD118114B83FB01235A101A
:10105000CB17D21A13469B001344CA1AD2000A4B6C
:1010600013440433BB60BB68FA791A70BB68BA7961
:101070005A70BB683A685A6004F036FC012318467F
:101080001037BD4680BD00BFE800002014010020DD
:101090006766666680B582B000AF3A4B1B78012B5D
:1010A00004D101F059FA374B00221A70364B1B78E5
:1010B000012B05D104F070FA334B00221A704EE078
:1010C0004DE004F019FC314B5B78304ADB001344EF
:1010D0003A46043393E8030082E803002B4B5B7825
:1010E000591C2B4B83FB01235A10CB17D21A1346E2
:1010F0009B001344CA1AD2B2244B5A70234B1B785C
:10110000013BDAB2214B1A7004F0EEFB3B78013B55
:10111000032B23D801A252F823F000BF2D110008A1
:1011200037110008451100084F1100087B78184658
:1011300000F0ACFD13E07A787B6810461946FFF7A3
:1011400045F90CE07B781846FFF7D8FC07E07A7881
:101150007B681046194602F0E5F800E000BF0B4B33
:101160001B78002BADD104F0C7FB084B1B78002B7C
:1011700002D1084B00221A7004F0B6FB0837BD46B6
:1011800080BD00BF1501002016010020E8000020EE
:10119000676666661401002080B485B000AF154B09
:1011A000BB60154B7B600023FB7311E0BB68FA7BCF
:1011B0009A71BB6803225A71BB687A685A62BB682D
:1011C0002C33BB607B682C337B60FB7B0133FB7370
:1011D000FB7B042BEAD9BB68FA7B9A71BB680022BF
:1011E0005A62064B034A1A601437BD465DF8047B09
:1011F000704700BF18010020440100208402002035
:1012000080B487B000AF78607B681B79FB737B6824
:1012100000225A71354B1B683B613B691B79FA7B95
:101220009A421ED13A697B689A421AD03B69002BD8
:1012300017D02F4BD3E900012E4BD3E9002399425D
:1012400008BF90420DD23B695B8998B24FF0000114
:10125000284BD3E90023121843EB01032449C1E9C9
:101260000023254B1B683B613B69002B06D1234BB8
:1012700001221A70204B7A681A6032E03B691B79B0
:10128000FA7B9A420CD21D4B01221A707B683A6994
:101290005A623B697A689A62174B7A681A6020E052
:1012A0003B695B6A7B610AE07B691B79FA7B9A4246
:1012B00000D207E07B693B617B695B6A7B617B698C
:1012C000002BF1D17B687A695A623B697A685A626D
:1012D0007B683A699A627B69002B02D07B697A68E5
:1012E0009A621C37BD465DF8047B7047900200206F
:1012F00098020020E000002088020020DA00002090
:1013000080B483B000AF78607B685B6A002B07D144
:101310007B689B6A002B03D11A4B00221A602BE0DA
:101320007B689B6A002B0BD17B685A6A154B1A604D
:101330007B6800225A62134B1B6800229A621BE0F2
:101340007B685B6A002B07D17B689B6A00225A622C
:101350007B6800229A620FE07B689B6A7A68526A17
:101360005A627B685B6A7A68926A9A627B6800223A
:101370005A627B6800229A620C37BD465DF8047B96
:10138000704700BF8802002080B586B000AF0246DB
:101390000B46FA71BB71FB79002B01D11423C1E01C
:1013A000FB79052B01D90123BCE0FB792C2202FB40
:1013B00003F25E4B13447B617B695B79032B01D1A4
:1013C0000123AFE0BB79402B01D90123AAE07B695F
:1013D0001B79BA799A4200F0A4807B69DB79FF2BF4
:1013E00015D07B69DB79DA00514B1344FB60FB6855
:1013F0009A787B699B799A4209D1FB68BA791A700D
:101400007B691B79BA799A4201D900238AE07B690A
:10141000BA791A717B695B79002B0FD1454B1B7828
:10142000DBB20133DAB2434B1A707869FFF768FF19
:101430007869FFF7E5FEFFF7D3FC72E07B695B7923
:10144000012B13D17B691A793B4B1B681B799A429C
:1014500067D9384B1B78DBB20133DAB2354B1A70DF
:10146000364B01221A70FFF7BBFC5AE07B69DB792F
:10147000FF2B37D02F4B1B78DBB20133DAB22D4B69
:101480001A707B69DB79DA00294B1344FB60FB6837
:101490005B687B61FB681B78FB74FB689A78FB6870
:1014A000DA700EE07B691B79FA7C9A4206D97B6977
:1014B0001B79FB747B699A79FB68DA707B695B6ADC
:1014C0007B617B69002BEDD1FFF78AFCFB681B7801
:1014D000FA7C9A4206D0FB689A78FB7C1046194643
:1014E000FFF752FFFB792C2202FB03F20F4B134450
:1014F0007B617B691B7AFF2B13D07B691B7A1A01F6
:101500000F4B1344BB60BB685B79C3F30313DBB2BF
:10151000022B06D1786904F0EFFBB868796904F012
:1015200007FB002318461837BD4680BD1801002070
:10153000AC030020D900002088020020DA0000203F
:101540004C04002080B584B000AF454B1B68FB60A5
:10155000444B1B68BB60BB68002B0ED0424B1B6822
:10156000FA689A4209D1414B1B78DBB2012B04D8AF
:101570003F4B1B78DBB2002B00D06DE03D4B0022CF
:101580001A70FB681B79FB71BB681B79BB71FB6828
:101590005B79012B09D0344BBA681A60BB68012211
:1015A0005A71B868FFF7ACFE2CE0BA79FB799A4221
:1015B0000CD22D4BBA681A60F868FFF721FEB868A4
:1015C000FFF79EFEBB6801225A711BE0FA79BB79D6
:1015D0009A4216D1284BD3E90001284BD3E90023C6
:1015E000994208BF90420CD11F4BBA681A60F86844
:1015F000FFF706FEB868FFF783FEBB6801225A7149
:1016000000E029E0184B1B681A79164B1B681B7900
:101610009A420ED1144B1B685B8998B24FF00001BF
:10162000164BD3E90023121843EB01031249C1E919
:101630000023FB681A68FB68DB689A4205D3FB68E5
:10164000DB681A680E4B9A4204D0FB689B791846F7
:1016500004F0A4FB04F05EF91037BD4680BD00BF66
:1016600090020020880200208C020020D900002077
:10167000D8000020DA00002098020020E0000020BE
:10168000A5A55A5A80B582B000AF0F4B1B78DBB2CC
:101690000133DAB20C4B1A700C4B1B68002B03D1D0
:1016A000FFF79EFB00230AE0084B1B687B60074B9B
:1016B0001B685A6A054B1A60FFF792FB7B68184655
:1016C0000837BD4680BD00BFD9000020840200203D
:1016D00080B588B000AFF860B9607A603B607A6826
:1016E0003E4B13401B0ABB837B68FB76FB68002BD9
:1016F00001D1FF236EE03B68002B01D1FF2369E09D
:10170000FB7E402B01D9FF2364E0BB8B132B01D858
:10171000FF235FE0F868B9683A68FFF701FC786179
:10172000FFF7B0FF38613B69002B01D1FF2351E087
:101730003B697A691A603B69FA7E1A71BA8B134663
:101740009B079B1A9B0004333A681A443B69DA6092
:101750003B69DB68224A1A603B694FF0FF321A622C
:101760003B6900225A623B6900229A627A681D4BEB
:1017700013401B0DFB83FB8B002B01D10A23FB8342
:101780003B69FA8B5A813B690022DA613B69FF228F
:101790001A723B6900221A613B6900225A613B6957
:1017A00000229A613B69FF22DA717B68002B0CDB17
:1017B0000D4B1B78DBB20133DAB20B4B1A70386970
:1017C000FFF71EFDFFF70CFB02E03B6902225A7196
:1017D0003B699B7918462037BD4680BD00FF0F004E
:1017E000A5A55A5A0000FF7FD900002080B584B01B
:1017F00000AF0346FB71FB79052B01D9012371E092
:10180000FB792C2202FB03F2384B1344FB60FB688C
:101810005B79032B01D1012364E0FB79002B01D11B
:1018200014235FE0FB685B79012B06D1304B1B78FA
:10183000DBB2002B01D0152354E0FB68DB79FF2BD2
:101840000ED0FB68DB792B4ADB0013449A78FB68E7
:101850009B799A4204D1FB68DB79184602F0D2FAF0
:10186000234B1B78DBB20133DAB2214B1A70FB68D1
:101870005B79002B03D1F868FFF742FD22E0FB689B
:101880005B79022B1ED1FB681B6AB3F1FF3F02D0CC
:10189000F86800F031FDFB681B7AFF2B02D0F86876
:1018A00004F02AFAFB68DB69002B04D0FB68DB69D3
:1018B0001846FFF725FAFB68DB79FF2B02D0F868A2
:1018C00002F038FBFB6803225A710B4B01221A709D
:1018D0000A4B1A68FB685A62084BFA681A60FFF7ED
:1018E0007FFA002318461037BD4680BD180100203E
:1018F000D9000020AC030020DA0000208402002080
:1019000080B500AF034B1B689B791846FFF76EFF4D
:1019100080BD00BF9002002080B400AF034B1B6865
:101920009B791846BD465DF8047B70479002002005
:1019300080B584B000AF0346FB71FB79002B01D169
:10194000142337E0FB79052B01D9012332E0FB7921
:101950002C2202FB03F2194B1344FB60FB685B79FA
:10196000032B01D1012325E0154B1B78DBB2002BA3
:1019700001D015231EE0FB685B79022B01D10D23FA
:1019800018E00F4B1B78DBB20133DAB20C4B1A7044
:101990000C4B1B68FA689A4203D0F868FFF7B0FC5A
:1019A00002E0094B01221A70FB6802225A71FFF70C
:1019B00017FA002318461037BD4680BD18010020D5
:1019C000D900002090020020DA00002080B584B009
:1019D00000AF0346FB71FB79002B01D114233DE0DE
:1019E000FB79052B01D9012338E0FB792C2202FB7E
:1019F00003F21C4B1344FB60FB685B79032B01D1A2
:101A000001232BE0FB685B79022B01D00E2325E03C
:101A1000FB681B6AB3F1FF3F01D00F231EE0FB6898
:101A2000DB69002B01D00F2318E0FB681B7AFF2B2A
:101A300001D00F2312E0FB68DB79FF2B01D00F23CD
:101A40000CE0094B1B78DBB20133DAB2064B1A709B
:101A5000F868FFF7D5FBFFF7C3F9002318461037E6
:101A6000BD4680BD18010020D900002080B584B09B
:101A700000AF13460246FA800A46BA80FB70FA8825
:101A8000BB889A4201D9FF231BE0FB78012B04D0CD
:101A9000FB78022B01D0FF2313E0FB7801201946CD
:101AA000002203F0BDFFF860FB68002B01D1FF238B
:101AB00007E0FB68FA88DA80FB68BA881A81FB685D
:101AC0001B7918461037BD4680BD00BF80B584B075
:101AD00000AF02460B46FA71BB71FB79132B01D99B
:101AE000012313E0FB791A010A4B1344FB60FB68E6
:101AF0005B79C3F30303DBB2012B01D0012305E0C3
:101B0000BB79F868194603F0CDFF03461846103735
:101B1000BD4680BD4C04002080B584B000AF0346B4
:101B2000FB71FB79132B01D9012325E0FB791A0105
:101B3000134B1344FB60FB685B79C3F30303DBB215
:101B4000012B01D0012317E00E4B1B78DBB20133D0
:101B5000DAB20C4B1A70FB68DB88002B09D0FB68EB
:101B6000DB88013B9AB2FB68DA80FFF739F9002382
:101B700002E0FFF735F9092318461037BD4680BD4E
:101B80004C040020D900002080B584B000AF03468B
:101B90003960FB71394B1B78DBB2002B01D003237A
:101BA00068E0FB79132B01D9012363E0FB791A016B
:101BB000334B1344FB60FB685B79C3F30303DBB275
:101BC000012B01D0012355E02E4B1B78DBB2002BFB
:101BD00001D015234EE02B4B1B78DBB20133DAB278
:101BE000284B1A70FB68DB88002B09D0FB68DB8868
:101BF000013B9AB2FB68DA80FFF7F2F8002339E084
:101C0000214B1B68BB603B68002B10D1F868B9689A
:101C100003F08EFFFB68DB88013B9AB2FB68DA8039
:101C2000BB6800221A61FFF7DBF8002322E0F868A6
:101C3000B96803F07DFFB868396800F0E5FAFFF78E
:101C4000CFF8BB681B69002B01D1052312E00D4BB7
:101C50001B78DBB20133DAB20A4B1A70BB68002280
:101C60001A61FB68DB88013B9AB2FB68DA80FFF7F8
:101C7000B7F8002318461037BD4680BDD8000020B5
:101C80004C040020D90000209002002080B584B0D0
:101C900000AF0346FB71FB79132B01D9012328E028
:101CA000FB791A01154B1344FB60FB685B79C3F3A6
:101CB0000303DBB2012B01D001231AE0FB68DA88B1
:101CC000FB681B899A4201D1062312E00C4B1B785A
:101CD000DBB20133DAB20A4B1A70FB68DB880133DE
:101CE0009AB2FB68DA80F86803F0A2FFFFF778F891
:101CF000002318461037BD4680BD00BF4C040020AD
:101D0000D900002080B582B000AF0346FB710D4BB7
:101D10001B78DBB2002B0CD0FB7901201946002286
:101D2000FFF772F90346002B01D1122306E00023CE
:101D300004E0FB791846FFF7A9FF03461846083769
:101D4000BD4680BDD900002080B400AF0D4A0E4BC7
:101D50001A600C4B03F1C8020B4B5A600B4B094A3B
:101D60001A600A4B1B6800221A60084B1B6800228D
:101D70005A60064B1B6800229A60BD465DF8047BE2
:101D8000704700BFA00200206C0300206803002001
:101D900080B58AB000AF78607B68002B01D100234A
:101DA000A2E07B68033323F0030308337B60504BCE
:101DB0005B68BB614F4B1B78DBB20133DAB24D4B32
:101DC0001A704D4B1B687B6200233B6285E07B6A87
:101DD0005B68002B04D17B6ABA69D31AFB6106E009
:101DE0007B6A5B681A467B6AD31A013BFB61FA691E
:101DF0007B689A426CD37B6A7B617B6908333B6169
:101E0000FA697B68D31A0B2B22D83B6A002B04D0CB
:101E10007B6A1A683B6A1A6003E07B6A1A68364B71
:101E20001A607B6A5B68002B09D07B6A5B68013BA8
:101E3000FB607B6943F001031A46FB685A607B6ACA
:101E40005A687B691A607B6A9A687B695A602DE0E0
:101E50007A6A7B681344BB603B6A002B03D03B6A01
:101E6000BA681A6002E0244BBA681A607B6943F0D2
:101E700001031A46BB689A607B6A5A68BB685A605D
:101E80007B6A1A68BB681A607B6A5B68002B06D0A5
:101E90007B6A5B68013BFB60FB68BA685A607B69E0
:101EA000BA681A607B6A9A687B695A607B6A9B6829
:101EB000002B09D07B6A9B68013BFB607B6943F088
:101EC00001031A46FB681A60FEF78AFF3B690BE0C4
:101ED0007B6A3B627B6A1B687B627B6A002B7FF4B8
:101EE00076AFFEF77DFF002318462837BD4680BD3C
:101EF0006C030020D90000206803002080B588B062
:101F000000AF78607B68002B00D15EE17B68083B06
:101F1000FB607A688B4B1B689A4200D255E17A6865
:101F2000884B5B689A4200D94FE1874B1B78DBB244
:101F30000133DAB2844B1A70FA68844B1B689A42F8
:101F400014D2824B1B689B68013B3B6109E03B69F3
:101F5000002B02D1FEF744FF37E13B695B68013B90
:101F60003B613A69FB689A42F1D132E0774B1B68DA
:101F7000002B03D1734B1B687B610DE0734B1B6817
:101F80005B68002B05D0714B1B685B68013B7B6174
:101F900002E000237B6118E017E07B69002B02D18F
:101FA000FEF71EFF11E17B691B6803F00103002BA4
:101FB00007D17B691B68BB61BB695B68013B7B61C7
:101FC00003E07B691B68013B7B617A69FB689A428D
:101FD000E3D1FB681B6803F00103002B52D1FB68BF
:101FE0005B6803F00103002B4CD1FB681B68002BDE
:101FF00012D1FB685B68002B0ED1FB68FB61FB69AB
:1020000000221A60FB6900225A60FB6900229A6074
:102010004E4BFA691A6034E0FB685B68002B13D101
:10202000FB68FB61FB681B68BB61BB691A68FB69E5
:102030001A60BB695A68FB695A60FB6900229A60A2
:10204000424BFA691A601CE0FB681B68002B09D13F
:10205000FB685B68FB61FB6900221A60FB69002278
:102060005A600EE0FB681B68BB61FB685B68FB6144
:10207000BB691A68FB691A60BB695A68FB695A60D8
:102080008BE08AE0FB685B6803F00103002B20D142
:10209000FB685B68002B12D1FB68FB61FB681B6867
:1020A0007B61FB697A695A60FB6900229A60274B61
:1020B0001A68FB691A60254BFA691A606DE0FB68C3
:1020C0005B68FB61FB681B687B61FB697A695A602E
:1020D00063E0FB681B6803F00103002B38D1FB6849
:1020E0005B683B61FB68FB61F86800F073F8B860FF
:1020F000BB68002B06D1154B1B68BB61134BFA69FB
:102100001A6005E0BB681B68BB61BB68FA691A60AE
:10211000BB69002B09D1FB693A699A60FB6900220F
:102120005A60FB6900221A6037E0FB693A699A60DD
:10213000BB695A68FB695A60BB691A68FB691A6017
:102140002BE000BF6C030020D900002068030020B2
:10215000FB68FB61F86800F03DF8B860FB685B68FD
:102160003B61FB681B687B61BB68002B06D1184B89
:102170001B68BB61164BFA691A6005E0BB681B68F7
:10218000BB61BB68FA691A60FB693A699A60FB69CE
:102190007A695A60FB69BA691A60FB699B68002B0F
:1021A00006D0FB699B68013B3B613B69FA691A6099
:1021B000FB695B68002B06D0FB695B68013B7B61B8
:1021C0007B69FA695A60FEF70BFE2037BD4680BD79
:1021D0006803002080B485B000AF78607B68FB6046
:1021E00003E0FB685B68013BFB60FB685B6803F036
:1021F0000103002BF5D1FB685B6818461437BD4618
:102200005DF8047B704700BF80B485B000AF786094
:1022100039603B68002B00D164E0354B1B68002B14
:1022200006D17B683A681A62314B7A681A6053E0CB
:102230002F4B1B68BB603B68FB604AE0FA68BB68D9
:102240001B6AD31AFB60FB68002B2EDABB689B6A03
:10225000002B0ED0BB689B6A7A685A62BB689A6A88
:102260007B689A627B68BA685A62BB687A689A62CD
:102270000AE01F4B1A687B685A621D4B1B687A681C
:102280009A621B4B7A681A607B685B6A1A6AFB6801
:102290001A447B681A627B685B6A7A68526A116AC0
:1022A0007A68126A8A1A1A6216E0FB68002B0DDB44
:1022B000BB685B6A002B09D17B68BA689A62BB680D
:1022C0007A685A62FA687B681A6205E0BB685B6AE2
:1022D000BB60BB68002BB1D17B6802225A71054BF1
:1022E00001221A701437BD465DF8047B704700BFA9
:1022F00074030020DA00002080B483B000AF78605F
:102300007B689B6A002B07D17B685B6A002B03D13B
:10231000254B00221A603DE07B689B6A002B14D19C
:102320007B685A6A204B1A607B685B6A7A68526ADB
:10233000116A7A68126A0A441A627B685B6A002230
:102340009A627B6800225A6224E07B685B6A002BF9
:1023500007D17B689B6A00225A627B6800229A62DE
:1023600018E07B689B6A7A68526A5A627B685B6A8B
:102370007A68926A9A627B685B6A7A68526A116AC2
:102380007A68126A0A441A627B6800225A627B6881
:1023900000229A627B684FF0FF321A620C37BD460A
:1023A0005DF8047B704700BF7403002080B400AF69
:1023B000044BD3E9002310461946BD465DF8047B63
:1023C000704700BFE000002080B582B000AF7860A9
:1023D000164B1B78DBB2002B01D0032321E07B6876
:1023E000B3F1FF3F01D102231BE07B68002B01D139
:1023F000002316E00E4B1B78DBB2002B01D0152317
:102400000FE00B4B1B78DBB20133DAB2084B1A70CA
:10241000084B1B6818467968FFF7F6FEFEF7E0FCEC
:10242000002318460837BD4680BD00BFD8000020F5
:10243000D90000209002002080B584B000AF034690
:102440003960FB71FB79052B01D901232BE0FB7966
:102450002C2202FB03F2164B1344FB60FB681B6843
:10246000002B01D101231EE0FB681B6AB3F1FF3F83
:1024700001D1112317E00F4B1B78DBB20133DAB225
:102480000C4B1A70F868FFF737FF3B68002B03D13D
:10249000F868FEF7B5FE03E0F8683968FFF7B4FEA8
:1024A000FEF79EFC002318461037BD4680BD00BFD6
:1024B00018010020D900002080B584B000AFF87169
:1024C000B9717A717B80214B1B78DBB2002B01D074
:1024D000032336E0BB793B2B06D87B793B2B03D813
:1024E0007B88B3F57A7F01D302232AE0184B1B784F
:1024F000DBB2002B01D0152323E0FB794FF461629E
:1025000002FB03F1BA7913461B019B1A9B00CA1800
:102510007B7913444FF47A7202FB03F27B884FF409
:102520007A7101FB03F303F5FA730A4981FB030196
:102530008911DB17CB1A1344FB60F868FFF744FFDF
:10254000002318461037BD4680BD00BFD8000020CC
:10255000D9000020D34D621080B582B000AF1A4B75
:102560001B687B6026E07B681B7AFF2B02D07868B3
:1025700003F0C2FB7B68DB69002B04D07B68DB695E
:102580001846FEF7BDFB7B684FF0FF321A627B688E
:102590005A6A0D4B1A607B6800225A627868FEF70F
:1025A0002FFE094B1B687B607B68002B02D07B6889
:1025B00000229A627B68002B03D07B681B6A002B89
:1025C000D1D00837BD4680BD7403002080B500AF70
:1025D000074B1B78DBB2012B06D9064B01221A7080
:1025E000054B01221A7001E0FFF7B6FF80BD00BF66
:1025F000D9000020140100201501002080B582B010
:1026000000AF78607A68264B9A420AD14FF4804036
:10261000012102F063F84FF48040002102F05EF8DF
:102620003AE07A681F4B9A420AD14FF400300121F8
:1026300002F072F84FF40030002102F06DF82BE048
:102640007A68194B9A420AD14FF48020012102F096
:1026500063F84FF48020002102F05EF81CE07A68F5
:10266000124B9A420AD14FF40020012102F054F893
:102670004FF40020002102F04FF80DE07A680C4B77
:102680009A4209D14FF48010012102F045F84FF42D
:102690008010002102F040F80837BD4680BD00BF21
:1026A000003801400044004000480040004C004019
:1026B0000050004080B58CB000AF786039600023D6
:1026C000FB620023BB6200237B6200233B6200238A
:1026D000FB617B68FB617B681B8A9BB2FB62FA6AC9
:1026E0004CF6FF731340FB623B68DB88FA6A1343C6
:1026F000FB62FB6A9AB27B681A827B689B899BB2F9
:10270000FB62FA6A4EF6F3131340FB623B689A8849
:102710003B681B8913439AB23B685B8913439BB2A6
:10272000FA6A1343FB62FB6A9AB27B689A817B6800
:102730009B8A9BB2FB62FA6A4FF6FF431340FB622F
:102740003B689B89FA6A1343FB62FB6A9AB27B6817
:102750009A8207F10803184601F0B4FEFA69304B7B
:102760009A4202D17B69BB6201E03B69BB627B6834
:102770009B899BB29BB21BB2002B0CDABA6A134640
:102780009B0013449A001A443B681B685B00B2FB31
:10279000F3F37B620BE0BA6A13469B0013449A0082
:1027A0001A443B681B689B00B2FBF3F37B627A6AB6
:1027B0001C4BA3FB02135B091B01FB62FB6A1B0999
:1027C000642202FB03F37A6AD31A3B627B689B891B
:1027D0009BB29BB21BB2002B0DDA3B6ADB0003F10C
:1027E0003202104BA3FB02135B0903F00703FA6AE2
:1027F0001343FB620CE03B6A1B0103F13202094BFD
:10280000A3FB02135B0903F00F03FA6A1343FB6295
:10281000FB6A9AB27B681A813037BD4680BD00BF23
:10282000003801401F85EB5180B483B000AF786061
:102830007B684FF416521A607B6800229A807B688E
:102840000022DA807B6800221A817B680C225A8180
:102850007B6800229A810C37BD465DF8047B704787
:1028600080B485B000AF786039600023FB607B687E
:102870001B8A9BB2FB60FA684FF2FF031340FB60B8
:102880003B681A883B685B8813439AB23B689B8815
:1028900013439AB23B68DB8813439BB2FA68134335
:1028A000FB60FB689AB27B681A821437BD465DF8FC
:1028B000047B704780B483B000AF78607B680022EF
:1028C0001A807B6800225A807B6800229A807B688D
:1028D0000022DA800C37BD465DF8047B704700BFEC
:1028E00080B483B000AF78600B46FB70FB78002BA0
:1028F00008D07B689B899BB243F400539AB27B68F3
:102900009A8107E07B689B899BB223F400539AB2BB
:102910007B689A810C37BD465DF8047B704700BF29
:1029200080B487B000AF786013460A467A807B7027
:1029300000233B610023FB600023BB6000237B611D
:102940007B687B617B88DBB25B09DBB23B617B88A8
:1029500003F01F03FB60FB68012202FA03F3BB6074
:102960003B69012B03D17B690C337B6109E03B6937
:10297000022B03D17B6910337B6102E07B69143346
:102980007B617B78002B06D07B697A691168BA6815
:102990000A431A6006E07B697A691168BA68D24313
:1029A0000A401A601C37BD465DF8047B704700BFC3
:1029B00080B483B000AF786013460A467A807B709B
:1029C0007B78002B08D07B689B8A9AB27B88134364
:1029D0009AB27B689A8209E07B689B8A9AB27B886C
:1029E000DB439BB213409AB27B689A820C37BD4698
:1029F0005DF8047B704700BF80B483B000AF78609F
:102A00000B46FB707B681B8A9BB223F00F039AB2C4
:102A10007B681A827B681B8A9AB2FB789BB213434D
:102A20009AB27B681A820C37BD465DF8047B70470A
:102A300080B483B000AF78600B467B807B689B8955
:102A40009BB223F400639AB27B689A817B689B896E
:102A50009AB27B8813439AB27B689A810C37BD4641
:102A60005DF8047B704700BF80B483B000AF78602E
:102A70000B46FB70FB78002B08D07B689B899BB2D0
:102A800043F002039AB27B689A8107E07B689B89D6
:102A90009BB223F002039AB27B689A810C37BD4641
:102AA0005DF8047B704700BF80B483B000AF7860EE
:102AB0000B467B807B681B8A9BB223F020039AB273
:102AC0007B681A827B681B8A9AB27B8813439AB20E
:102AD0007B681A820C37BD465DF8047B704700BFE7
:102AE00080B483B000AF78600B46FB70FB78002B9E
:102AF00008D07B681B8A9BB243F480439AB27B6800
:102B00001A8207E07B681B8A9BB223F480439AB247
:102B10007B681A820C37BD465DF8047B704700BFA6
:102B200080B483B000AF78600B467B807B88C3F3B2
:102B300008039AB27B689A800C37BD465DF8047B27
:102B4000704700BF80B483B000AF78607B689B881B
:102B50009BB2C3F308039BB218460C37BD465DF821
:102B6000047B704780B483B000AF78607B689B893A
:102B70009BB243F001039AB27B689A810C37BD4641
:102B80005DF8047B704700BF80B483B000AF78600D
:102B90000B46FB707B681B8B9BB2DBB29AB27B68E7
:102BA0001A837B681B8B9AB2FB789BB21B029BB289
:102BB00013439AB27B681A830C37BD465DF8047BD9
:102BC000704700BF80B483B000AF78600B46FB70E5
:102BD0007B681B8B9BB223F0FF039AB27B681A833E
:102BE0007B681B8B9AB2FB789BB213439AB27B68CB
:102BF0001A830C37BD465DF8047B704780B483B000
:102C000000AF78600B46FB70FB78002B08D07B6828
:102C10009B8A9BB243F020039AB27B689A8207E0BA
:102C20007B689B8A9BB223F020039AB27B689A82CE
:102C30000C37BD465DF8047B704700BF80B483B09D
:102C400000AF78600B46FB70FB78002B08D07B68E8
:102C50009B8A9BB243F010039AB27B689A8207E08A
:102C60007B689B8A9BB223F010039AB27B689A829E
:102C70000C37BD465DF8047B704700BF80B483B05D
:102C800000AF78600B46FB70FB78002B08D07B68A8
:102C90009B8A9BB243F008039AB27B689A8207E052
:102CA0007B689B8A9BB223F008039AB27B689A8266
:102CB0000C37BD465DF8047B704700BF80B483B01D
:102CC00000AF78600B46FB70FB78002B0AD07B6866
:102CD0009B899BB26FEA43436FEA53439AB27B6886
:102CE0009A8107E07B689B899BB2C3F30E039AB27B
:102CF0007B689A810C37BD465DF8047B704700BF46
:102D000080B483B000AF78600B46FB70FB78002B7B
:102D100008D07B689B8A9BB243F400639AB27B68BD
:102D20009A8207E07B689B8A9BB223F400639AB285
:102D30007B689A820C37BD465DF8047B704700BF04
:102D400080B483B000AF78600B467B807B689B8A41
:102D50009BB223F004039AB27B689A827B689B8AB9
:102D60009AB27B8813439AB27B689A820C37BD462D
:102D70005DF8047B704700BF80B483B000AF78601B
:102D80000B46FB70FB78002B08D07B689B8A9BB2BC
:102D900043F002039AB27B689A8207E07B689B8AC1
:102DA0009BB223F002039AB27B689A820C37BD462D
:102DB0005DF8047B704700BF80B485B000AF7860D9
:102DC0000B467B800023FB737B681B889AB27B8851
:102DD00013409BB2002B02D00123FB7301E00023C0
:102DE000FB73FB7B18461437BD465DF8047B7047C8
:102DF00080B483B000AF78600B467B807B88DB4378
:102E00009AB27B681A800C37BD465DF8047B704728
:102E100080B487B000AF78600B467B800023FB60F6
:102E200000237B610023BB600023FB747B88DBB243
:102E30005B09DBB2BB607B8803F01F037B617B69AE
:102E4000012202FA03F37B61BB68012B06D17B6888
:102E50009B899BB27A6913407B610FE0BB68022BB0
:102E600006D17B681B8A9BB27A6913407B6105E0BF
:102E70007B689B8A9BB27A6913407B617B881B0AC3
:102E80009BB2FB60FB68012202FA03F3FB607B68E4
:102E90001B889BB2FA681340FB607B69002B05D04E
:102EA000FB68002B02D00123FB7401E00023FB74BC
:102EB000FB7C18461C37BD465DF8047B704700BF9D
:102EC00080B485B000AF78600B467B800023FB8127
:102ED0000023BB817B881B0AFB81FB89012202FA4C
:102EE00003F3BB81BB89DB439AB27B681A8014373A
:102EF000BD465DF8047B704780B584B000AF786054
:102F000013460A467A807B707B68002B02D07B8850
:102F1000002B01D1FF2362E0334B1B78DBB201337E
:102F2000DAB2314B1A700023FB7352E0FB7B0122B3
:102F300002FA03F31A462D4B1B681340002B45D1B0
:102F4000FB7B012202FA03F31A46284B1B681A4343
:102F5000264B1A60FDF744FFFB7B254A1B011344F7
:102F60007A681A60FB7B224A1B011344FA7B1A71B0
:102F7000FB7B1F4A1B0113440022DA80FB7B1C4AA7
:102F80001B011344083300221A80FB7B184A1B01E3
:102F9000134408337A885A80FB7B154A1B0113447B
:102FA000083300229A80FB7B1A01114B13447A7874
:102FB000032011461A4602F033FDB860BB68002BAF
:102FC00001D1FF230BE0BB681B7908E0FB7B0133D9
:102FD000FB73FB7B012BA9D9FDF702FFFF231846EA
:102FE0001037BD4680BD00BFD900002098030020E7
:102FF0007803002080B586B000AF02460B46FA7118
:10300000BB71FB79132B01D9012338E0FB791A013D
:103010001D4B13447B617B695B79C3F30303DBB214
:10302000032B01D001232AE07B691B683B61BB793C
:103030007869194602F036FD0346FB73FB7B002BD3
:103040001CD13B691B79012202FA03F3DA430F4BCF
:103050001B681A400D4B1A603B6900221A603B69DD
:1030600000221A713B690022DA803B6900221A8132
:103070003B6900225A813B6900229A81FB7B1846FA
:103080001837BD4680BD00BF4C04002098030020C7
:1030900080B586B000AF03463960FB71FB79132B16
:1030A00004D93B6801221A70002348E0FB791A0119
:1030B000254B13447B617B695B79C3F30303DBB26C
:1030C000032B04D03B6801221A70002337E07B6990
:1030D0001B683B611D4B1B78DBB20133DAB21B4B23
:1030E0001A703B699B89002B23D03B691A683B69A6
:1030F000DB889B0013441B68FB603B69DB88013362
:103100009AB23B69DA803B699B89013B9AB23B6981
:103110009A813B69DA883B695B899A4202D13B69B3
:103120000022DA80FDF75CFE3B6800221A70FB6823
:1031300005E0FDF755FE3B680B221A700023184688
:103140001837BD4680BD00BF4C040020D9000020C8
:1031500080B588B000AF0346B9607A60FB736D4BF1
:103160001B78DBB2002B04D07B6803221A7000238B
:10317000CBE0FB7B132B04D97B6801221A70002360
:10318000C3E0FB7B1A01644B1344FB61FB695B7971
:10319000C3F30303DBB2032B04D07B6801221A7054
:1031A0000023B2E05D4B1B78DBB2002B04D07B68C0
:1031B00015221A700023A8E0FB691B68BB61574BFE
:1031C0001B78DBB20133DAB2544B1A70BB699B89AE
:1031D000002B23D0BB691A68BB69DB889B001344B2
:1031E0001B687B61BB69DB8801339AB2BB69DA80FB
:1031F000BB699B89013B9AB2BB699A81BB69DA883A
:10320000BB695B899A4202D1BB690022DA80FDF773
:10321000E7FD7B6800221A707B6976E0FDF7E0FD30
:103220003F4B1B683B61BB68002B2CD1F8693969A7
:1032300002F07EFC394B1B78DBB20133DAB2374B3C
:103240001A703B691B697B613B6900221A61BB698B
:10325000DB8801339AB2BB69DA80BB699B89013B89
:103260009AB2BB699A81BB69DA88BB695B899A4269
:1032700002D1BB690022DA80FDF7B2FD7B68002233
:103280001A707B6941E0254B1B78DBB20133DAB25F
:10329000224B1A70F869396902F04AFC3869B9683A
:1032A000FEF7B2FFFDF79CFD3B691B69002B04D1C3
:1032B0007B6805221A70002327E0184B1B78DBB2CD
:1032C0000133DAB2154B1A703B691B697B613B69AC
:1032D00000221A61BB69DB8801339AB2BB69DA80CC
:1032E000BB699B89013B9AB2BB699A81BB69DA8849
:1032F000BB695B899A4202D1BB690022DA80FDF783
:103300006FFD7B6800221A707B6918462037BD4626
:1033100080BD00BFD80000204C040020D900002050
:103320009002002080B584B000AF03463960FB7185
:10333000FB79132B01D9012342E0FB791A01224BBF
:103340001344FB60FB685B79C3F30303DBB2032B1D
:1033500001D0012334E0FB681B68BB60BB689A891D
:10336000BB685B899A4201D1082329E0174B1B787F
:10337000DBB20133DAB2154B1A70BB681A68BB684E
:103380001B899B0013443A681A60BB681B89013390
:103390009AB2BB681A81BB689B8901339AB2BB6839
:1033A0009A81BB681A89BB685B899A4202D1BB6863
:1033B00000221A81F86802F03BFCFDF711FD0023A2
:1033C00018461037BD4680BD4C040020D9000020AF
:1033D00080B582B000AF03463960FB710D4B1B789E
:1033E000DBB2002B0CD0FB79042019463A68FDF7BC
:1033F0000BFE0346002B01D1122307E0002305E05A
:10340000FB7918463968FFF78DFF034618460837E1
:10341000BD4680BDD900002080B586B000AF02F067
:103420000FF90820012101F01DF944F204000121E7
:1034300001F018F90123BB821023FB750323BB7530
:1034400007F114032648194600F072F94FF400738F
:10345000BB820123BB751823FB7507F114032148B8
:10346000194600F065F94FF48063BB820123BB75F8
:103470000423FB7507F114031A48194600F058F9A4
:103480004FF461437B6000233B8100237B81002359
:10349000BB810C23FB8100233B823B1D1248194654
:1034A000FFF708F9104840F225510122FFF738FADA
:1034B0000D480121FFF714FA0B484021FFF798FC53
:1034C00025233B7001237B700023BB700123FB701D
:1034D0003B46184601F0F4F91837BD4680BD00BFE1
:1034E000000C0140000801400038014080B582B066
:1034F00000AF78600B48012100F03AFA002000216B
:1035000000224FF4FA73FEF7D7FF0648012100F0BE
:103510003DFA0020002100224FF4FA73FEF7CCFFA1
:10352000E8E700BF000C014080B584B000AF7860D0
:10353000094B1A7807F10B03104600211A46FFF7D2
:1035400007FEF860FB7A002B05D1FB681B78184654
:1035500001F0ECFBECE7EBE71421002080B582B032
:1035600000AF7860FFF758FF0E484FF47A710122E0
:10357000FFF7C2FC03461A460B4B1A700B4800219A
:103580004FF601720A4BFEF7A3F80A48002148F2F1
:103590000202094BFEF79CF8FEF7B2F90837BD4668
:1035A00080BD00BF8C0900201421002029350008AF
:1035B00088090020ED340008281B002080B400AFEB
:1035C0000A4B1A680A4B9A600A4B1A68084B5A60F1
:1035D000094B1A68064B1A60054B5A68044B9B68E6
:1035E000D31A1846BD465DF8047B7047E8F7FF1F05
:1035F0009C030020ECF7FF1FF0F7FF1F80B500AF22
:10360000FDF72AFC084800214FF40042074BFEF763
:103610005FF8FFF7D3FF0246054B9A4201D0FDF752
:1036200059FC0023184680BD5D350008102100209C
:103630000181DD4E80B582B000AF78607A682F4B93
:103640009A4208D10420012101F048F80420002109
:1036500001F044F84EE07A68294B9A4208D10820DC
:10366000012101F03BF80820002101F037F841E08A
:103670007A68244B9A4208D11020012101F02EF8DB
:103680001020002101F02AF834E07A681E4B9A429B
:1036900008D12020012101F021F82020002101F093
:1036A0001DF827E07A68194B9A4208D14020012181
:1036B00001F014F84020002101F010F81AE07A68B7
:1036C000134B9A4208D18020012101F007F8802095
:1036D000002101F003F80DE07A680E4B9A4209D1FF
:1036E0004FF48070012100F0F9FF4FF48070002149
:1036F00000F0F4FF0837BD4680BD00BF0008014060
:10370000000C01400010014000140140001801406D
:10371000001C01400020014080B500AF01200121C4
:1037200000F0DCFF0120002100F0D8FF80BD00BFC9
:1037300080B489B000AF786039600023FB6100235A
:103740003B610023BB610023FB6000237B610023FE
:10375000BB603B68DB7803F00F03FB613B68DB7801
:1037600003F01003002B04D03B689B78FA691343E5
:10377000FB613B681B88DBB2002B44D07B681B6875
:103780007B610023BB6138E0BB69012202FA03F3CD
:10379000FB603B681B881A46FB6813403B613A6933
:1037A000FB689A4226D1BB699B00FB60FB680F2235
:1037B00002FA03F3BB60BB68DB437A6913407B61A9
:1037C000FB68FA6902FA03F37A6913437B613B6889
:1037D000DB78282B05D1BB6901229A407B685A61AE
:1037E00008E03B68DB78482B04D1BB6901229A4092
:1037F0007B681A61BB690133BB61BB69072BC3D905
:103800007B687A691A603B681B88FF2B46D97B6806
:103810005B687B610023BB613AE0BB69083301222E
:1038200002FA03F3FB603B681B881A46FB681340EF
:103830003B613A69FB689A4227D1BB699B00FB60F8
:10384000FB680F2202FA03F3BB60BB68DB437A69B3
:1038500013407B61FB68FA6902FA03F37A69134348
:103860007B613B68DB78282B05D1BB6908330122DB
:103870009A407B685A613B68DB78482B05D1BB696D
:10388000083301229A407B681A61BB690133BB612E
:10389000BB69072BC1D97B687A695A602437BD465A
:1038A0005DF8047B704700BF80B483B000AF7860E0
:1038B0007B684FF6FF721A807B6802229A707B68E1
:1038C0000422DA700C37BD465DF8047B704700BFF8
:1038D00080B485B000AF78600B467B800023FB731B
:1038E0007B689A687B881340002B02D00123FB730E
:1038F00001E00023FB73FB7B18461437BD465DF8DF
:10390000047B704780B483B000AF78607B689B68AD
:103910009BB218460C37BD465DF8047B704700BF6C
:1039200080B485B000AF78600B467B800023FB73CA
:103930007B68DA687B881340002B02D00123FB737D
:1039400001E00023FB73FB7B18461437BD465DF88E
:10395000047B704780B483B000AF78607B68DB681D
:103960009BB218460C37BD465DF8047B704700BF1C
:1039700080B483B000AF78600B467B807A887B6828
:103980001A610C37BD465DF8047B704780B483B084
:1039900000AF78600B467B807A887B685A610C3771
:1039A000BD465DF8047B704780B483B000AF78609B
:1039B00013460A467A807B707B78002B03D07A8886
:1039C0007B681A6102E07A887B685A610C37BD46D1
:1039D0005DF8047B704700BF80B483B000AF7860AF
:1039E0000B467B807A887B68DA600C37BD465DF8D1
:1039F000047B704780B485B000AF78600B467B8055
:103A00004FF48033FB607B88FA681343FB607B686C
:103A1000FA689A617A887B689A617B68FA689A6129
:103A20007B689B69FB607B689B69FB601437BD46C4
:103A30005DF8047B704700BF80B485B000AF0246DC
:103A40000B46FA71BB710023FB600C4B1B68FB60DB
:103A5000FA684FF680731340FB60FB791B01FA682C
:103A60001343FB60BB79FA681343FB60034BFA68AE
:103A70001A601437BD465DF8047B704700000140B2
:103A800080B483B000AF0346FB71044BFA791A602F
:103A90000C37BD465DF8047B704700BF1C00204218
:103AA00080B487B000AF78600B46FB7000233B61A9
:103AB0000023FB6000237B610023BB607B68002B3D
:103AC00003DA2E4BDB697B6102E02C4B5B687B6188
:103AD0007B6803F470231B0CBB607B689BB23B616B
:103AE0007B6803F44013B3F5401F0AD17B6923F0D0
:103AF00070637B61214B214A526822F070625A60E8
:103B000021E07B6803F48013002B0ED0BB680322F6
:103B100002FA03F3FB60FB68DB437A6913407B61C5
:103B20007B6943F070637B610DE07B685B0D1B017B
:103B30003A6902FA03F3DB437A6913407B617B69DC
:103B400043F070637B61FB78002B08D07B685B0DD2
:103B50001B013A6902FA03F37A6913437B617B68BC
:103B6000002B03DA054B7A69DA6102E0034B7A69CC
:103B70005A601C37BD465DF8047B70470000014069
:103B800090B484B000AF02460B46FA71BB710023BB
:103B9000FB60BB7903F003039B000F2202FA03F3DF
:103BA000FB60154BBA799208D2B21349B8798008F4
:103BB000C0B2023051F82000F968C9430140023216
:103BC00043F822100C4BBA799208D2B20A49B8795C
:103BD0008008C0B2023051F82000FC79B97901F0B8
:103BE0000301890004FA01F10143023243F8221073
:103BF0001037BD4690BC70470000014080B483B0D0
:103C000000AF7860034B7A681A600C37BD465DF8E8
:103C1000047B7047DC00204280B582B000AF184BB7
:103C20001B78DBB20133DAB2154B1A70154B1B78D7
:103C3000092B1ED8134B1B785A1CD1B2114A117094
:103C4000FB71FDF7CDF8FB79DA000F4B13443B60B5
:103C50003B68FF22DA703B68FF221A703B68002243
:103C60005A703B68FF229A703B6800225A60FB79C9
:103C700002E0FDF7B5F8FF2318460837BD4680BDC2
:103C8000D9000020A8030020AC03002080B586B036
:103C900000AF0346FB71534B1B78DBB2002B01D006
:103CA00003239AE0504B1B78DBB2002B01D0152385
:103CB00093E04E4B1B78FA799A4201D301238CE0B2
:103CC000494B1B78DBB20133DAB2474B1A70484BD1
:103CD0001B683B61FB79DA00464B1344FB603B6990
:103CE000FA79DA71FB685B78002B0FD13B691A799E
:103CF000FB681A703B699A79FB689A703B699A79FC
:103D0000FB68DA70FB6801225A7063E0FB685B783D
:103D1000012B5FD1FB689B782C2202FB03F2364B10
:103D200013447B617B691A793B691B799A422AD9D2
:103D30003B691A797B691A713B699A79FB68DA7079
:103D40007B695B79002B06D17869FDF7D9FA786930
:103D5000FDF756FA17E07B691B7AFF2B13D07B69BE
:103D60001B7A1A01254B1344BB60BB685B79C3F314
:103D70000313DBB2022B06D1786901F0BDFFB868EE
:103D8000796901F0D5FE3B6902225A711C4B012270
:103D90001A703B6900225A623B6900229A62FB68F2
:103DA0005B687B617B69002B03D1FB683A695A60D1
:103DB00010E002E07B695B6A7B617B695B6A002BD8
:103DC000F8D17B693A695A623B697A699A623B69C0
:103DD00000225A62FDF704F8002318461837BD4642
:103DE00080BD00BFD8000020D9000020A80300201B
:103DF00090020020AC030020180100204C04002099
:103E0000DA00002080B586B000AF0346FB71444B5A
:103E10001B78DBB2002B01D003237CE0414B1B78E5
:103E2000FA799A4201D3012375E03F4B1B78DBB24C
:103E30000133DAB23C4B1A70FB79DA003B4B134486
:103E4000FB60FB689B782C2202FB03F2384B134487
:103E50007B617B69FF22DA71FB685B68002B08D10C
:103E6000FB6800225A70FB68FF229A70FCF7B8FFCB
:103E700050E0FB689B78FB72FB68DB78FA7A9A4229
:103E800019D1FB685B687B617B691B79FB740EE071
:103E90007B691B79FA7C9A4206D97B691B79FB7492
:103EA0007B699A79FB68DA707B695B6A7B617B6905
:103EB000002BEDD107E0FB7A1D4A2C2101FB03F317
:103EC00013441B79FB74FB68FF229A70FB681B7814
:103ED000FA7A10461946FDF757FAFB685B687B6172
:103EE0007B695A6AFB685A607B691A79FB681A70A9
:103EF0007B699A79FB689A707B69FA7C1A717B6995
:103F000000225A627B6900229A627869FDF778F98B
:103F1000FCF766FF002318461837BD4680BD00BF7A
:103F2000D8000020A8030020D9000020AC03002006
:103F30001801002080B586B000AF78607B68DB791F
:103F4000DA00374B13443B617B685B6A002B07D177
:103F50007B689B6A002B03D13B6900225A6027E0F3
:103F60007B685B6A002B07D17B689B6A00225A62E0
:103F70007B6800229A621BE07B689B6A002B07D15A
:103F80007B685B6A00229A627B6800225A620FE0BB
:103F90007B685B6A7A68926A9A627B689B6A7A68D5
:103FA000526A5A627B6800229A627B6800225A62D7
:103FB0007B68FF22DA713B69DA787B689B799A42E9
:103FC0002BD13B695B687B603B691B78FB753B6968
:103FD0009A783B69DA700EE07B681B79FA7D9A4229
:103FE00006D97B681B79FB757B689A793B69DA7027
:103FF0007B685B6A7B607B68002BEDD13B699B78BB
:10400000FB733B69FF229A70FA7BFB7D10461946D1
:10401000FDF7BAF93B69FA7B9A701837BD4680BD47
:10402000AC03002098B500AFFCF7ACFE154820218A
:10403000FEF7C2FE0346012B20D1134B1B881C4602
:104040001048FEF77FFD0346DAB2104B1A55104BAD
:104050001A780D4B1B8819460C4B0B441046194619
:10406000FFF7B6F9084B1B885A1C91B2064A11801B
:10407000B3F57A7F02D1044B00221A80FCF78AFE46
:1040800098BD00BF00380140FC0300202C1B00201D
:104090001421002080B582B000AF0346FB71FB798C
:1040A0009BB207481946FEF73BFD00BF044880213C
:1040B000FEF782FE0346002BF8D00837BD4680BDD0
:1040C0000038014080B400AF134B134A126842F02D
:1040D00001021A60104A104B5968104B0B40536094
:1040E0000D4A0D4B1B6823F0847323F48033136057
:1040F000094B094A126822F480221A60064B064ACC
:10410000526822F4FE025A60034B4FF41F029A6079
:10411000BD465DF8047B7047001002400000FFF8C8
:1041200080B483B000AF7860134B134A126822F456
:1041300080321A60104B104A126822F480221A60F2
:104140007B68B3F5803F03D0B3F5802F07D00DE037
:10415000094B094A126842F480321A6006E0064BA5
:10416000054A126842F4A0221A6000BF0C37BD460F
:104170005DF8047B704700BF0010024080B582B03C
:1041800000AF00233B600023FB710023BB71312093
:1041900000F010FB0346BB713B6801333B603B689A
:1041A000B3F5A06F02D0BB79002BF0D0312000F026
:1041B00001FB0346002B02D00123FB7101E0002329
:1041C000FB71FB7918460837BD4680BD80B485B0C9
:1041D00000AF0346FB710023FB600A4B1B68FB60CA
:1041E000FB6823F0F803FB60FB79DB00FA681343FC
:1041F000FB60044BFA681A601437BD465DF8047B17
:10420000704700BF0010024080B483B000AF034687
:10421000FB71044BFA791A600C37BD465DF8047BDC
:10422000704700BF0000424280B485B000AF7860A4
:1042300039600023FB600A4B5B68FB60FB6823F47A
:104240007C13FB607A683B681343FA681343FB6096
:10425000034BFA685A601437BD465DF8047B70471B
:104260000010024080B483B000AF0346FB71044BE2
:10427000FA791A600C37BD465DF8047B704700BFC1
:104280006000424280B485B000AF78600023FB60DC
:10429000094B5B68FB60FB6823F00303FB60FA6873
:1042A0007B681343FB60044BFA685A601437BD46C1
:1042B0005DF8047B704700BF0010024080B400AF7F
:1042C000054B5B68DBB203F00C03DBB21846BD465E
:1042D0005DF8047B704700BF0010024080B485B0D9
:1042E00000AF78600023FB60094B5B68FB60FB68F4
:1042F00023F0F003FB60FA687B681343FB60044B18
:10430000FA685A601437BD465DF8047B704700BFF9
:104310000010024080B485B000AF78600023FB60DD
:10432000094B5B68FB60FB6823F4E063FB60FA68A1
:104330007B681343FB60044BFA685A601437BD4630
:104340005DF8047B704700BF0010024080B485B068
:1043500000AF78600023FB60094B5B68FB60FB6883
:1043600023F46053FB607B68DB00FA681343FB6057
:10437000034BFA685A601437BD465DF8047B7047FA
:104380000010024080B483B000AF02460B46FA71C1
:10439000BB71BB79002B08D00B4B0B4A1278D1B202
:1043A000FA790A43D2B21A7009E0074B064A12782A
:1043B000D1B2FA79D243D2B20A40D2B21A700C37D3
:1043C000BD465DF8047B70470910024080B483B09D
:1043D00000AF7860034B7A681A600C37BD465DF811
:1043E000047B7047D800424280B485B000AF78604B
:1043F0000023FB60094B5B68FB60FB6823F44043D0
:10440000FB60FA687B681343FB60044BFA685A60F0
:104410001437BD465DF8047B704700BF00100240B2
:1044200080B483B000AF0346FB710C4B00221A70BE
:104430000A4B00221A70FB79012B02D0042B04D006
:1044400007E0064B01221A7003E0044B05221A70A4
:1044500000BF0C37BD465DF8047B7047201002405A
:1044600080B483B000AF0346FB71044BFA791A6045
:104470000C37BD465DF8047B704700BF80044242A4
:1044800080B483B000AF7860054B054A116A7A6842
:104490000A431A620C37BD465DF8047B704700BFC3
:1044A0000010024080B483B000AF0346FB71044BA0
:1044B000FA791A600C37BD465DF8047B704700BF7F
:1044C0003C04424280B487B000AF786000237B6137
:1044D00000233B610023FB600023BB604D4B5B6806
:1044E00003F00C037B617B69042B07D0082B09D0F8
:1044F000002B34D17B68484A1A6034E07B68464A16
:104500001A6030E0434B5B6803F470133B61414B2E
:104510005B6803F48033FB603B699B0C02333B61B7
:10452000FB68002B06D13B693C4A02FB03F27B6827
:104530001A6013E0374B5B6803F40033002B06D09E
:104540003B69364A02FB03F27B681A6006E03B696E
:10455000314A02FB03F27B681A6004E003E07B68E7
:104560002D4A1A6000BF2B4B5B6803F0F0037B61A0
:104570007B691B097B612A4A7B6913441B78DBB288
:10458000BB607B681A68BB68DA407B685A60214B65
:104590005B6803F4E0637B617B691B0A7B61204AF3
:1045A0007B6913441B78DBB2BB607B685A68BB68CD
:1045B000DA407B689A60174B5B6803F460537B6159
:1045C0007B69DB0A7B61164A7B6913441B78DBB28B
:1045D000BB607B685A68BB68DA407B68DA600D4B69
:1045E0005B6803F440437B617B699B0B7B610D4AF5
:1045F0007B6913441B78DBB2BB607B68DA68BB68FD
:10460000B2FBF3F27B681A611C37BD465DF8047B90
:10461000704700BF0010024000127A0000093D0000
:10462000000000201000002080B483B000AF78604C
:104630000B46FB70FB78002B06D0094B084A5169EA
:104640007A680A435A6106E0054B054A51697A685F
:10465000D2430A405A610C37BD465DF8047B70476F
:104660000010024080B483B000AF78600B46FB704E
:10467000FB78002B06D0094B084A91697A680A43F7
:104680009A6106E0054B054A91697A68D2430A406F
:104690009A610C37BD465DF8047B704700100240FC
:1046A00080B483B000AF78600B46FB70FB78002BC2
:1046B00006D0094B084AD1697A680A43DA6106E0F4
:1046C000054B054AD1697A68D2430A40DA610C3752
:1046D000BD465DF8047B70470010024080B483B093
:1046E00000AF78600B46FB70FB78002B06D0094BBF
:1046F000084AD1687A680A43DA6006E0054B054A41
:10470000D1687A68D2430A40DA600C37BD465DF85A
:10471000047B70470010024080B483B000AF786023
:104720000B46FB70FB78002B06D0094B084A116939
:104730007A680A431A6106E0054B054A11697A68EE
:10474000D2430A401A610C37BD465DF8047B7047BE
:104750000010024080B483B000AF0346FB71044BED
:10476000FA791A600C37BD465DF8047B704700BFCC
:104770004004424280B483B000AF0346FB71044B57
:10478000FA791A600C37BD465DF8047B704700BFAC
:104790004C00424280B483B000AF0346FB71044B2F
:1047A000FA791A700C37BD465DF8047B704700BF7C
:1047B0000710024080B487B000AF0346FB710023AE
:1047C000FB6000237B610023FB74FB795B09DBB298
:1047D000FB60FB68012B03D1124B1B687B6109E076
:1047E000FB68022B03D10F4B1B6A7B6102E00D4B70
:1047F0005B6A7B61FB7903F01F03FB60FB687A69EE
:1048000022FA03F303F00103002B02D00123FB740F
:1048100001E00023FB74FB7C18461C37BD465DF8A5
:10482000047B70470010024080B400AF044B044A80
:10483000526A42F080725A62BD465DF8047B70474E
:104840000010024080B485B000AF0346FB71002326
:10485000FB73094B9A68FB791340002B02D00123AC
:10486000FB7301E00023FB73FB7B18461437BD4646
:104870005DF8047B704700BF0010024080B483B035
:1048800000AF0346FB71044BFA791A700C37BD4632
:104890005DF8047B704700BF0A10024080B483B00B
:1048A00000AF7860054A7B6843F0BF6343F4003390
:1048B000D3600C37BD465DF8047B704700ED00E027
:1048C00080B487B000AF786000237B6100233B6138
:1048D0000F23FB607B68DB78002B38D0264BDB682E
:1048E000DB4303F4E0631B0A7B617B69C3F10403D0
:1048F0003B617B69FA6822FA03F3FB607B685B78B3
:104900001A463B6902FA03F37B617B689B781A467F
:10491000FB6813407A6913437B617B691B017B61F0
:1049200016497B681B787A69D2B20B4483F800235E
:10493000124B7A6812785209D2B27968097801F07C
:104940001F01012000FA01F143F822100EE00B4B89
:104950007A6812785209D2B27968097801F01F0199
:10496000012000FA01F1203243F822101C37BD4625
:104970005DF8047B704700BF00ED00E000E100E05F
:1049800080B483B000AF78603960074A3B6823F099
:10499000604323F07F0379680B4393600C37BD4677
:1049A0005DF8047B704700BF00ED00E080B483B089
:1049B00000AF02460B46FA71BB71BB79002B06D0E3
:1049C000094B094A1169FA790A431A6106E0064B54
:1049D000054A1169FA79D2430A401A610C37BD467B
:1049E0005DF8047B704700BF00ED00E080B483B049
:1049F00000AF78607B68042B06D1094B084A126827
:104A000042F004021A6005E0054B054A126822F0E4
:104A100004021A600C37BD465DF8047B704700BF86
:104A200010E000E00000000080B483B000AF034657
:104A3000FB710A4B1A78FB791344DAB2074B1A70F0
:104A4000074B1A78054B1B781344DAB2044B1A70E3
:104A50000C37BD465DF8047B704700BF050400209D
:104A600006040020B0B500AF8F4B04221A7025E079
:104A70008E4B1B681A028D4B1A608B4B1B781133BF
:104A80008B4AD35C1A46894B1B681A43874B1A60C2
:104A9000884B1B681A02874B1A60834B1B781533AF
:104AA000834AD35C1A46834B1B681A43814B1A60B6
:104AB0007D4B1B78013BDAB27B4B1A707A4B1B782B
:104AC000002BD5D1794B1B687B4A82FB0312521114
:104AD000DB17D31A184603F027F802460B4677492E
:104AE000C1E90023734B1B68734A82FB0312521106
:104AF000DB17D31A184603F017F802460B46704925
:104B0000C1E900236D4BD3E900016C4BD3E90023CD
:104B100003F070F802460B4614461D46684BD3E975
:104B20000001674BD3E9002303F064F802460B460B
:104B30002046294602F0ACFE02460B4610461946B6
:104B400001F0C4F902460B465E49C1E900235C4B03
:104B5000D3E90001594BD3E9002301F0B5F902462E
:104B60000B46104619464EA3D3E9002303F06CF917
:104B700002460B465449C1E90023534BD3E90023B5
:104B8000104619464FF00002504B02F081FE0246DB
:104B90000B461046194642A3D3E9002303F02AF836
:104BA00002460B461046194601F0FEF8454BD3E984
:104BB000002303F01FF802460B46104619464FF03B
:104BC0000002434B03F016F802460B461046194606
:104BD00003F0AAFA0246354B1A603B4BD3E9002397
:104BE000104619464FF00002384B02F051FE0246C3
:104BF0000B46104619462AA3D3E9002302F0FAFF18
:104C000002460B461046194601F014F92D4BD3E924
:104C1000002302F0EFFF02460B46104619464FF004
:104C200000022B4B02F0E6FF02460B4610461946E7
:104C300003F07AFA02461F4B1A601B4B00221A70CF
:104C40001FE0194B1B781233184A1268D1B2184A68
:104C5000D154164B1B681A12144B1A60124B1B7856
:104C60001633144A1268D1B2114AD154114B1B6841
:104C70001A12104B1A600C4B1B780133DAB20A4B34
:104C80001A70094B1B78032BDBD9B520FFF702FA0A
:104C90006220FFF7FFF9044B02221A702EE000BFDA
:104CA0005F40D42247DF913F202200200C040020E7
:104CB00018210020100400201F85EB51282200201D
:104CC0003022002018220020382200200000494015
:104CD00000005940114B1B78114AD35C1846FFF76E
:104CE000D9F90E4B1B780E4AD35C1846FFF79CFE91
:104CF0000A4B1B780133DAB2084B1A70074B1B784A
:104D0000392BE7D9074B1B781846FFF7C3F9064B39
:104D10001B781846FFF7BEF9B0BD00BF2022002067
:104D200018210020050400200604002080B582B070
:104D300000AF0346FB71744B1B78072B00F2E18038
:104D400001A252F823F000BF694D00088B4D000806
:104D5000AD4D0008CF4D0008E94D0008034E000896
:104D6000414E0008794E0008FB79B52B09D1674BFD
:104D7000B5221A70644B1B780133DAB2624B1A7099
:104D8000BFE0614B00221A70BBE0FB79622B09D1B6
:104D90005E4B62225A705C4B1B780133DAB25A4B7D
:104DA0001A70AEE0584B00221A70AAE0FB79012B72
:104DB00009D1564B01229A70534B1B780133DAB25A
:104DC000514B1A709DE0504B00221A7099E0504BE5
:104DD000FA791A704D4BFA79DA704B4B1B78013324
:104DE000DAB2494B1A708CE04A4BFA791A70474B89
:104DF000FA791A71444B1B780133DAB2424B1A70BC
:104E00007FE0FB79002B17D1434BFA791A703F4BA7
:104E1000FA795A71404B1B781B029AB23D4B1B78B2
:104E200013439BB29AB23D4B1A80374B1B78013328
:104E3000DAB2354B1A7064E0334B00221A7060E02E
:104E4000374B1B780633314AF979D154344B1B78F0
:104E50000133DAB2324B1A70314B1B781A462F4BA2
:104E60001B8801339A4206D1274B1B780133DAB2F3
:104E7000254B1A7045E044E0284B1B880733234A32
:104E8000F979D154224B1B78062B02D1FFF7EAFDAA
:104E900018E0244B00221A700CE0224B1B781B4AAE
:104EA000D35C1846FFF7F6F81E4B1B780133DAB2D5
:104EB0001C4B1A701B4B1B781A46184B1B88083367
:104EC0009A42EADB124B00221A70124B00221A702F
:104ED000114B00221A70114B00221A80124B002233
:104EE0001A60124B00221A60074B00221A700C4BFA
:104EF00000221A700E4B00221A700E4B00221A70FC
:104F000000BF0837BD4680BD0004002018210020E6
:104F100002040020030400200404002008040020F0
:104F200001040020202200200C0400201004002096
:104F30000504002006040020002100F004B80C4BFA
:104F40005B58435004310B480B4B42189A42FFF414
:104F5000F6AF0A4A00F003B8002342F8043B084BBE
:104F60009A42FFF4F9AF00F06BFBFEF747FB704786
:104F7000C283000800000020A8000020A800002034
:104F800040220020FFF7FEBF90B587B000AF034678
:104F9000FB71FA796D4913465B001344DB000B4447
:104FA0005B68FB60FB68002B00D1CCE0684B1B7892
:104FB000DBB20133DAB2664B1A70664B1B68002B0A
:104FC00009D1FA7913465B001344DB005F4A1A44A7
:104FD000604B1A60B5E05F4B1B687B61FB683B610F
:104FE000ABE03A697B695B68D31A3B613B69002B94
:104FF0007CDA7B695B69002B28D07B695969FA7977
:1050000013465B001344DB00504A13440B61FA79EA
:105010007B6959694D4813465B001344DB00034428
:1050200010335960FA79494913465B001344DB0099
:105030000B4410337A691A60FA7913465B00134403
:10504000DB00424A1A447B695A611DE0FA79414B00
:1050500019683E4813465B001344DB0003441033D9
:1050600019603C4B1968FA7913465B001344DB0066
:10507000364A13444B61FA7913465B001344DB0054
:10508000324A1A44334B1A60FA79F9792F480B46A1
:105090005B000B44DB00034410331B6859683B6919
:1050A00019442A4813465B001344DB00034459604B
:1050B000FA79264913465B001344DB000B44103396
:1050C0001968FA79214813465B001344DB00034456
:1050D00010331B685868FA791C4C13465B00134464
:1050E000DB0023445B68C31A4B602AE03B69002B5A
:1050F00020DB7B691B69002B1CD1FA79134913460D
:105100005B001344DB000B4410337A695A60FA7970
:1051100013465B001344DB000C4A1A447B691A6196
:10512000FA793969094813465B001344DB000344EC
:10513000596006E07B691B697B617B69002B7FF40A
:1051400050AFFBF74DFE1C37BD4690BD1404002048
:10515000D90000204404002080B584B000AF03468D
:10516000FB71FA7913465B001344DB002C4A1344AD
:10517000FB602C4B1B78DBB20133DAB2294B1A707F
:10518000FB685B69002B07D1FB681B69002B03D10F
:10519000254B00221A603DE0FB685B69002B14D1AF
:1051A000FB681A69204B1A601F4B1B6800225A616A
:1051B000FB681B69FA6812695168FA6852680A4408
:1051C0005A60FB6800221A6124E0FB681B69002B0F
:1051D00007D1FB685B6900221A61FB6800225A61F3
:1051E00018E0FB685B69FA6812691A61FB681B6961
:1051F000FA6852695A61FB681B69FA68126951685A
:10520000FA6852680A445A60FB6800221A61FB6817
:1052100000225A61FBF7E4FD1037BD4680BD00BF98
:1052200014040020D90000204404002080B586B07A
:1052300000AFB9607A603B600346FB73FB7B002BD9
:1052400004D0FB7B012B01D0FF237BE03B68002BCC
:1052500001D1FF2376E03D4B1B78DBB20133DAB29C
:105260003A4B1A700023FB7566E0FB7D012202FABF
:1052700003F31A46364B1B681340002B59D1FB7DB4
:10528000012202FA03F31A46314B1B681A43304BD2
:105290001A60FBF7A5FDFA7D2E4913465B00134407
:1052A000DB000B44FA7D1A70FA7D2A4913465B0035
:1052B0001344DB000B44FA7B5A70FA7D25491346F0
:1052C0005B001344DB000B4401229A70FA7D2149F4
:1052D00013465B001344DB000B44BA685A60FA7D46
:1052E0001C4913465B001344DB000B4408337A6807
:1052F0001A60FA7D174913465B001344DB000B4428
:1053000008333A685A60FA7D124913465B00134429
:10531000DB000B44103300225A60FA7D0D4913461E
:105320005B001344DB000B44103300221A60FB7D4A
:1053300008E0FB7D0133FB75FB7D012B95D9FBF765
:105340004FFDFF2318461837BD4680BDD900002009
:10535000480400201404002080B582B000AF03464A
:10536000FB71FB79012B01D9012325E0FB79012297
:1053700002FA03F31A46124B1B681340002B01D1AB
:10538000012319E0FA790F4913465B001344DB004F
:105390000B449B78002B01D100230DE0FA790949D9
:1053A00013465B001344DB000B4400229A70FB7928
:1053B0001846FFF7E9FD002318460837BD4680BDB3
:1053C000480400201404002080B582B000AF0346DA
:1053D000FB71FB79012B01D9012325E0FB79012227
:1053E00002FA03F31A46124B1B681340002B01D13B
:1053F000012319E0FA790F4913465B001344DB00DF
:105400000B449B78012B01D100230DE0FB7918465A
:10541000FFF7A2FEFA79074913465B001344DB004D
:105420000B4401229A70002318460837BD4680BD00
:10543000480400201404002080B582B000AF034669
:10544000FB71FB79012B01D9012325E0FB790122B6
:1054500002FA03F31A46124B1B681340002B01D1CA
:10546000012319E0FA790F4913465B001344DB006E
:105470000B449B78002B03D1FB791846FFF76CFE99
:10548000FB79012202FA03F3DB431A46044B1B6843
:105490001A40034B1A60002318460837BD4680BDEA
:1054A000480400201404002080B483B000AF0346F9
:1054B0003960FB71FB79012B04D93B6801221A701A
:1054C000002319E0FB79012202FA03F31A460D4B7F
:1054D0001B681340002B04D13B6801221A70002383
:1054E0000AE03B6800221A70FA79074913465B000C
:1054F0001344DB000B445B6818460C37BD465DF86F
:10550000047B7047480400201404002080B584B058
:1055100000AF0346B9607A60FB73FB7B012B01D9B6
:10552000012331E0FB7B012202FA03F31A46184BF8
:105530001B681340002B01D1012325E0FA7B15499C
:1055400013465B001344DB000B44BA685A60FA7BD5
:10555000104913465B001344DB000B4408337A68A0
:105560001A60FA7B0B4913465B001344DB000B44C3
:105570009B78002B07D1FB7B1846FFF7EDFDFB7BEB
:105580001846FFF701FD002318461037BD4680BDC1
:10559000480400201404002080B582B000AF1B4BEB
:1055A0001B687B6027E07B685B78002B0BD17B68F6
:1055B0001B781846FFF7D0FD7B6801229A707B6844
:1055C000DB68984714E07B685B78012B10D17B681F
:1055D0001B781846FFF7C0FD7B689A687B685A60A5
:1055E0007B681B781846FFF7CFFC7B68DB68984721
:1055F000064B1B687B607B68002B03D07B685B6875
:10560000002BD0D00837BD4680BD00BF4404002029
:1056100080B500AF074B1B78DBB2012B06D9064BD8
:1056200001221A70054B01221A7001E0FFF7B4FF46
:1056300080BD00BFD9000020140100201601002009
:1056400080B500AF154B154A126842F001021A608E
:10565000124A124B5968124B0B4053600F4A0F4BC2
:105660001B6823F0847323F4803313600B4B0B4AC5
:10567000126822F480221A60084B084A526822F409
:10568000FE025A60054B4FF41F029A6000F078F852
:10569000044B4FF000629A6080BD00BF00100240D2
:1056A0000000FFF800ED00E080B485B000AF0023FB
:1056B000FB600023BB6000237B602C4B5B6803F026
:1056C0000C03FB60FB68042B07D0082B09D0002BD0
:1056D00034D1274B274A1A6034E0254B254A1A60FB
:1056E00030E0224B5B6803F47013BB601F4B5B68B8
:1056F00003F480337B60BB689B0C0233BB607B6828
:10570000002B06D1BB681C4A02FB03F2184B1A603F
:1057100013E0164B5B6803F40033002B06D0BB6824
:10572000154A02FB03F2124B1A6006E0BB68114AED
:1057300002FB03F20E4B1A6004E003E00C4B0D4A2F
:105740001A6000BF094B5B6803F0F0031B090B4AAA
:10575000D35CDBB2FB60064B1A68FB68DA40044B93
:105760001A601437BD465DF8047B70470010024094
:105770001400002000127A0000093D0018000020EB
:1057800080B500AF00F002F880BD00BF80B483B0E8
:1057900000AF00237B6000233B603A4B394A12681C
:1057A00042F480321A60374B1B6803F400333B60CD
:1057B0007B6801337B603B68002B03D17B68B3F5CA
:1057C000A06FF0D12F4B1B6803F40033002B02D0E5
:1057D00001233B6001E000233B603B68012B4BD180
:1057E000294B294A126842F010021A60264B264AB9
:1057F000126822F003021A60234B234A126842F017
:1058000002021A601F4B1F4A52685A601D4B1D4A04
:1058100052685A601B4B1B4A526842F480625A60BD
:10582000184B184A526822F47C125A60154B154ADC
:10583000526842F4E8125A60124B124A126842F05F
:1058400080721A6000BF0F4B1B6803F00073002BBF
:10585000F9D00C4B0B4A526822F003025A60094BF4
:10586000084A526842F002025A6000BF054B5B686A
:1058700003F00C03082BF9D10C37BD465DF8047B0F
:10588000704700BF001002400020024090B482B078
:1058900000AF786000247B6802B472B6197801F119
:1058A0000101197062B6A1F101010B0002BCDCB26A
:1058B000234618460837BD4690BC704790B482B066
:1058C00000AF786000247B6802B472B61978A1F149
:1058D0000101197062B60B0002BCDCB22346184607
:1058E0000837BD4690BC704780B400AF62B600BFB9
:1058F000BD465DF8047B704780B400AF72B600BF50
:10590000BD465DF8047B7047A0F11C0080F3098858
:10591000704700BF0E4B1B680E4A11681960704734
:105920000D4B19680D4A1268914200F00B80EFF39D
:10593000098020E9F00F08601A601068B0E8F00FE5
:1059400080F30988064B002018704EF0040E704753
:10595000280000202C000020900200208C02002053
:10596000D900002080B485B000AF0023FB73184B32
:10597000BB60184B7B6014E0BB687A681A60BB6838
:10598000FA7B1A71BA685379042161F303035371E6
:10599000BB681033BB607B6810337B60FB7B0133DB
:1059A000FB73FB7B122BE7D9BA685379042161F3AF
:1059B00003035371BB6800221A60BB68FA7B1A713B
:1059C000054B034A1A601437BD465DF8047B7047E7
:1059D0004C0400205C0400208C05002080B582B0BF
:1059E00000AF78607A685379042161F3030353713F
:1059F000094B1B78DBB20133DAB2074B1A70074B45
:105A00001A687B681A60054B7A681A60FBF7E8F938
:105A10000837BD4680BD00BFD90000208C0500209E
:105A200080B584B000AF0B463A600246FA71BB7194
:105A30001A4B1B78DBB20133DAB2184B1A70184BD1
:105A40001B68002B03D1FBF7CBF9002322E0144B9A
:105A50001B68FB60124B1B681A68114B1A60FBF73E
:105A6000BFF9FB7903F00F03D9B2FA68537961F3F8
:105A700003035371BB7903F00F03D9B2FA6853796A
:105A800061F307135371FB683A681A60FB680022E0
:105A9000DA60FB6818461037BD4680BDD90000208B
:105AA0008C05002080B584B000AF78600B46FB7099
:105AB000FB78002B09D17B68DB68002B01D0042325
:105AC00030E07868FFF78AFF2BE0FB78012B28D1C4
:105AD000164B1B78DBB20133DAB2144B1A7017E0A5
